:040000008A11112828
:10000800FE00030E83120313B9000408BA000A089D
:10001800BB007F08BC008A11862A8A111328831323
:100028004C3084005E308A11A9278A11A0308400E0
:10003800BA308A11A9278A1183018A1123288A11C3
:1000480023258A118A118A278A11003083160313FF
:10005800BD000130BC008630BB00A030BA008A1158
:10006800B6258A118A11A0278A118A1140238A117C
:1000780083160313CF002D304F06031D442845284F
:10008800DD282208031949284A28782A8A11C02716
:100098008A11103083120313BE000030BF008A118A
:1000A800B1278A1183160313C501C601792883165F
:1000B80003134508A53E840083130008C200C3014A
:1000C800420883120313BE008316031343088312E6
:1000D8000313BF008A11B1278A1101308316031355
:1000E800C5070318C60A0030C6074608803AC2008A
:1000F80080304202031D822822084502031C8528FD
:1001080086285B28003083120313BE00BF008A11C3
:10011800B1278A118A11B9278A118A11C7278A112A
:100128008A115D278A1183120313C10101308A11D4
:10013800B5268A118A11C7278A112F308312031313
:10014800C1008030C2008A1153268A1106308316F6
:100158000313C4001330C300AD30C200C20BB22871
:10016800C30BB228C40BB22800008A115D278A117C
:10017800003083120313BE00BF001130C0000030EE
:10018800C100A5308A1197268A1183160313A2018C
:10019800A3010130A40020308A1149278A111130A7
:1001A80083120313C1008030C2008A1153268A11BA
:1001B800782A4F080319E128E228782A2D304F06BB
:1001C8000319E728E828782A21080319EC28ED28DC
:1001D8006D293D304F06031DF228F3286D29B630EE
:1001E8008A11DB238A11831203134508831603132C
:1001F800C80083120313440883160313C700480872
:10020800803AFF0080307F02031D0C29213047020D
:10021800031C0F2910296729831603134808803AFD
:10022800FF0080307F02031D1B29FF30470203189F
:100238001E291F2967291030831603132202031869
:100248002629272967292208C200C3014208C900B4
:100258004308CA004229831603134908A43E8400B0
:1002680083130008FF004908A53E84007F0880002A
:10027800FF30C9070318CA0AFF30CA074A08803A7C
:10028800803C031D492949082302031C4C294D2998
:100298002F29831603132308A53E840047088313D8
:1002A80080000130FF007F08A2070F3023020318E7
:1002B8005E295F2963290130FF007F08A307220810
:1002C800A53E8400800183160313A101A001B60195
:1002D8005B2A2108031971297229932930304F02AA
:1002E800031C7729782993293A304F0203187D296E
:1002F8007E2993290330200203188329842993290E
:100308002008B63E84004F08831380000130FF00A8
:100318007F08A0072008B63E840080015B2A2108D8
:10032800031D972998295B2A4D2AA101A10AA0013A
:10033800B6015B2A23080319A229A3295B2A0130E5
:10034800A3025B2A220823020318AB29AC295B2AE3
:100358000130FF007F08A3075B2A22082302031845
:10036800B629B7295B2A2308C200C3014208CB007B
:100378004308CC00D229831603134B08A63E8400F9
:1003880083130008FF004B08A53E84007F08800007
:100398000130CB070318CC0A0030CC074C08803A50
:1003A800C20080304202031DDB2922084B02031CD5
:1003B800DE29DF29BF29013083160313A2025B2A35
:1003C8000F3022020318E929EA292C2A2208C20040
:1003D800C3014208CD004308CE00052A8316031343
:1003E8004D08A43E840083130008FF004D08A53E75
:1003F80084007F088000FF30CD070318CE0AFF3045
:10040800CE074E08803A803C031D0C2A4D08230273
:10041800031C0F2A102AF229831603132308A53E6A
:1004280084004F08831380000F30230203181D2A0D
:100438001E2A222A0130FF007F08A307103022025B
:100448000318272A282A2C2A0130FF007F08A20730
:100458008A11C7278A118A115D278A11831203130B
:10046800C10101308A11B5268A11A5308312031300
:10047800C1000030C2008A1153268A118316031363
:10048800230883120313C10001308A11B5268A118B
:100498005B2A4F082B3A03199929043A03199E2914
:1004A8006C3A0319B1291B3A0319A629E4298A11C0
:1004B8005D278A1183120313C10101308A11B52601
:1004C8008A11A53083120313C1000030C2008A11BB
:1004D80053268A1183160313230883120313C100BA
:1004E80001308A11B5268A11823083160313C3009E
:1004F800DD30C200C20B7E2AC30B7E2A00003628DC
:100508008A1111288C1D892A8A2A362B1308BD00C6
:10051800141683160313941A922A932A9C2A1419E0
:10052800962A972A9C2A83120313CC01CD01332BD8
:10053800941E9F2AA02A332B1419A32AA42A332BEA
:10054800831203134D08803AFF0080307F02031D99
:10055800AF2A0F304C020318B22AB32A332B831266
:1005680003134C084E3E84003D088313800001307D
:10057800CC070318CD0A0030CD073D080319C52A5A
:10058800C62ACD2A0F304C064D04031DCC2ACD2A8D
:10059800332B4C084E3E840080018A11CB278A11E8
:1005A8008A116D278A1183120313A30101308A115E
:1005B800D1268A114E3083120313A3000030A40001
:1005C8008A1175268A110B3083120313B80026305E
:1005D800B7005D30B600B60BEF2AB70BEF2AB80BA1
:1005E800EF2A00008A116D278A1122308312031323
:1005F800A3008030A4008A1175268A118312031380
:10060800CC01CD010B3083120313B8002630B7009C
:100618005D30B600B60B0E2BB70B0E2BB80B0E2B9E
:1006280000008A116D278A1183120313A301013078
:100638008A11D1268A118A1195278A1183160313E4
:10064800A401003083120313B1000130B0008630DA
:10065800AF00A030AE008A11F9258A11332B83121E
:1006680003138C113C083B088A003A088400390EB1
:100678008300FE0E7E0E090083120313C001C10120
:100688004108803AFF0080307F02031D4D2B043063
:100698004002031C502B512B522BD92B10308312A4
:1006A8000313BE00400A5A2B0310BE0DFF3E031D64
:1006B800582B3E08FF3A86000F3083160313860036
:1006C8001A3083120313BF00F830BE00BE0B6A2B2A
:1006D800BF0B6A2B83120313C201C30101308312BB
:1006E8000313BE00420A7A2B0310BE0DFF3E031D02
:1006F800782B3E080605031D822B832BB92B01306E
:10070800BE00420A892B0310BE0DFF3E031D872B36
:100718003E0806050319912B922B832B85118230F5
:1007280083120313BF00DD30BE00BE0B992BBF0B35
:10073800992B0000831203138515F03083160313D9
:100748008600831203134008BE0002300310BE0D5A
:10075800FF3E031DAA2B01303E07BF0042083F079A
:1007680084008A117A258A11DA2B0130C20703180E
:10077800C30A0030C3074308803AFF0080307F0275
:10078800031DC82B04304202031CCB2BCC2B722B2D
:10079800F030831603138600013083120313C00759
:1007A8000318C10A0030C107442B00300800831227
:1007B8000313CB00C901CA01C801E62B0130FF00B1
:1007C8007F08CB074B0884002030831300060319E9
:1007D800EE2BEF2BE22B4B088400F7300007C60006
:1007E80005304602031CF92BFA2BE22B4B08840038
:1007F8002D300006031D012C022C092CC801C80A43
:100808000130FF007F08CB07322C4B0884002B30C7
:100818000006031D102C112C322C042C4B088400CC
:100828004A08BF004908BE000A30C0000030C100B5
:100838008A112C268A11831203133F08C7008313D9
:1008480000083E02C600031CC7034608303EC90024
:1008580047080318013E003ECA00042C4B088400D8
:10086800D0300007C6000A304602031C3C2C3D2C41
:10087800122C4808031D412C422C4E2C4909C60055
:100888004A09C700C60A0319C70A4608C400470828
:10089800C500522C4A08C5004908C40008000030A9
:1008A80083120313CA000030C9000030C8000030AA
:1008B800C700410840043F043E040319642C652C1A
:1008C800B22CCB01CB0A752C0130C6000310BE0D2B
:1008D800BF0DC00DC10DC60B6A2C0130FF007F088B
:1008E800CB07C11F782C792C682C0130C600031067
:1008F800C70DC80DC90DCA0DC60B7B2C4108450292
:10090800031D902C40084402031D902C3F0843020D
:10091800031D902C3E084202031C932C942CA32CFC
:100928003E08C2023F08031C3F0FC3024008031CD5
:10093800400FC4024108031C410FC502471401308F
:100948000310C10CC00CBF0CBE0CFF3E031DA42C31
:100958000130CB02031DB12CB22C792C4A08C100FE
:100968004908C0004808BF004708BE00080000301A
:1009780083120313AC000030AB000030AA00003033
:10098800A90023082204210420040319CC2CCD2C0F
:100998001A2DAD01AD0ADD2C0130A8000310A00D01
:1009A800A10DA20DA30DA80BD22C0130FF007F08CA
:1009B800AD07A31FE02CE12CD02C0130A8000310B8
:1009C800A90DAA0DAB0DAC0DA80BE32C230827022B
:1009D800031DF82C22082602031DF82C21082502E5
:1009E800031DF82C20082402031CFB2CFC2C0B2DC7
:1009F8002008A4022108031C210FA5022208031CB9
:100A0800220FA6022308031C230FA7022914013072
:100A18000310A30CA20CA10CA00CFF3E031D0C2D6F
:100A28000130AD02031D192D1A2DE12C2C08A3004D
:100A38002B08A2002A08A1002908A00008000730F6
:100A4800831603139F00850186011A30831203134E
:100A5800C200F830C100C10B2F2DC20B2F2D38302A
:100A68008A1104278A11073083120313C2007C30CD
:100A7800C100C10B3D2DC20B3D2D422D0F308A11F7
:100A880004278A11073083120313C2007C30C10087
:100A9800C10B4C2DC20B4C2D512D01308A1104274E
:100AA8008A11033083120313C2009730C100C10BAF
:100AB8005B2DC20B5B2D000002308A1104278A11BE
:100AC800033083120313C2009730C100C10B6A2D93
:100AD800C20B6A2D00000800FF1B7A2D83137F18B4
:100AE80083170008840A0319FF0A080005308A00E2
:100AF8000408840A820700343734383439342F34F0
:100B080034343534363458343134323433342D3483
:100B1800433430343D342B34453453345034453425
:100B2800523441344E3444344F3420344D345334E9
:100B380020344534533443340034453473346334F7
:100B48007234693462346134203452346534733415
:100B5800703400344D3453344734203445344E34E3
:100B68005634003428308312031394008316031379
:100B78003A08BE003B08BF003C08C0003D08C10061
:100B880002300310BE0DBF0DC00DC10DFF3E031D89
:100B9800C52D410883120313C100831603134008AF
:100BA80083120313C000831603133F088312031331
:100BB800BF00831603133E0883120313BE000030E0
:100BC800C5003D30C4000930C3000030C2008A119E
:100BD80053248A11831203133E08FF3E831603131E
:100BE8009300940187150716080028308312031311
:100BF80094002E08B2002F08B3003008B400310862
:100C0800B50002300310B20DB30DB40DB50DFF3EA3
:100C1800031D062E3508A3003408A2003308A100DE
:100C28003208A0000030A7003D30A6000930A5001A
:100C38000030A4008A11BB248A11831203132008F0
:100C4800FF3E8316031393009401871507160800C7
:100C580083120313C201C3013E1C332E342E3A2ED5
:100C68004008C2070318C30A4108C307013003102C
:100C7800C00DC10DFF3E031D3B2E01300310BF0CFC
:100C8800BE0CFF3E031D422E3E083F04031D4D2EA1
:100C98004E2E302E4308BF004208BE000800662EC4
:100CA8004208FF00410884008A1170258A118A11C0
:100CB800ED268A11013083120313C1070318C20AF3
:100CC8000030C207831203134208FF004108840062
:100CD8008A1170258A11003A031D732E742E542E22
:100CE8000800882E2408FF00230884008A11702534
:100CF8008A118A111B278A11013083120313A30753
:100D08000318A40A0030A407831203132408FF0061
:100D1800230884008A1170258A11003A031D952E34
:100D2800962E762E080083120313C2004208C300D1
:100D3800A62E430884003E08831380000130FF007C
:100D48007F08C3070130C0020030031CC103C10281
:100D5800400A031DB32E410A031DB32EB42E9D2E47
:100D6800080083120313C20042030319BC2EBD2ED0
:100D7800C22EC030C3000030C400C62E8030C3006D
:100D88000030C4004308C5004108FF007F08C507BC
:100D980045088A1104278A11080083120313A40046
:100DA80024030319D82ED92EDE2EC030A50000301A
:100DB800A600E22E8030A5000030A6002508A70076
:100DC8002308FF007F08A70727088A1132278A11FE
:100DD800080083120313C00005148510400886001C
:100DE8000515033083120313BF009730BE00BE0BF6
:100DF800FB2EBF0BFB2E0000831203130511080006
:100E080083120313C00005108510400886000515DD
:100E1800033083120313BF009730BE00BE0B122F9E
:100E2800BF0B122F00008312031305110800831251
:100E38000313A20005148510220886000515033047
:100E480083120313A1009730A000A00B292FA10B38
:100E5800292F0000831203130511080083120313BE
:100E6800A20005108510220886000515033083129C
:100E78000313A1009730A000A00B402FA10B402F17
:100E88000000831203130511080083120313BE0028
:100E98003E0883160313930036308312031394001D
:100EA800831603138C150B178B17940187150716D8
:100EB800080001308A1104278A11033083120313B2
:100EC800C2009730C100C10B672FC20B672F00000B
:100ED800080001308A1132278A1103308312031364
:100EE800A4009730A300A30B772FA40B772F000043
:100EF80008008316031311081F39031D842F852F3B
:100F08007D2F1419882F892F7D2F0800831603132E
:100F1800851185010F308600F03083120313860097
:100F2800080083160313851185010F308600F03001
:100F38008312031386000800F0308316031386001B
:100F48000F30831203138600080064008001840AAE
:100F58000406031900340406AA2F8A117D278A1172
:100F6800831203133E08930008008A117D278A1113
:100F780083160313111508008A117D278A11831619
:100F8800031311140800831603138601080083163F
:060F9800031386010800AE
:02400E00793FF8
:00000001FF
