:040000008A11112828
:100006000134FE00030E83120313B9000408BA007C
:100016000A08BB007F08BC008A116E2A8A111328C1
:100026008A1103208A11DF008313BD308400CD308E
:100036008A11F8278A11433084005F308A11F82725
:100046008A1183018A118D2E83160313BB008A1130
:100056008B258A11831203134A080319332834287F
:10006600E6283D30831603133B06031D3B283C2838
:10007600BE285B308A11D4238A1183160313230802
:10008600B6002208B5003608803AFF0080307F02AD
:10009600031D4F2821303502031C52285328B82847
:1000A600831603133608803AFF0080307F02031D53
:1000B6005E28FF303502031861286228B8288312AB
:1000C60003134608803AFF0080307F02031D6D2827
:1000D60010304502031870287128B82883120313BC
:1000E600450883160313B9008728831603133908B6
:1000F6004A3E840083130008FF0039084B3E840003
:100106007F0880000130B9023908831203134802C0
:10011600031C8E288F28782848084B3E84008316B7
:10012600031335088313800010308312031348022B
:1001360003189E289F28A3280130FF007F08C807C0
:100146004608803AFF0080307F02031DAC2810303D
:1001560045020318AF28B028B828013083120313CC
:10016600C5070318C60A0030C60783120313CA015F
:10017600C901DB016D2A30303B02031CC328C428A9
:100186006D2A3A303B020318C928CA286D2A033063
:100196008312031349020318D128D2286D2A49086D
:1001A6005B3E8400831603133B08831380000130F3
:1001B600FF007F0883120313C90749085B3E8400CA
:1001C60080016D2A6D2A2B30831603133B06031D0F
:1001D600ED28EE28F52883120313CA01CA0AC901BD
:1001E600DB016D2A2F303B06031DFA28FB28052963
:1001F6008312031348080319012902296D2A0130C5
:10020600C8026D2A58303B06031D0A290B291F29EF
:10021600831203134608803A803C031D14294508BF
:1002260048020318172918296D2A0130FF007F0894
:1002360083120313C8076D2A43303B06031D242986
:100246002529852983120313480883160313BA0048
:100256003D29831603133A084C3E84008313000895
:10026600FF003A084B3E84007F0880000130FF0003
:100276007F08BA07831203134608803A803C031DA1
:1002860048294508831603133A02031C4B294C29B7
:100296002C29831203134608803AFF0080307F0220
:1002A600031D572901304502031C5A295B2963297E
:1002B600FF3083120313C5070318C60AFF30C607AB
:1002C600831203134608803A803C031D6C294508B7
:1002D6004802031C6F2970296D2A831203134608EE
:1002E600803AFF0080307F02031D7B2901304502E2
:1002F600031C7E297F296D2A831203134508FF3EBE
:10030600C8006D2A2D303B06031D8A298B29EE294C
:10031600831203134608803AFF0080307F02031DD4
:10032600962901304502031C99299A29E52883124A
:10033600031348084B3E8400831380014B308A1117
:10034600D8258A118A15DC278A1183120313C10165
:1003560001308A1160278A11113083120313C100FC
:100366008030C2008A111C278A110B3083160313B2
:10037600B4002630B3005D30B200B20BC029B30B17
:10038600C029B40BC02900008A15DC278A11831204
:100396000313C10101308A1160278A1121308312AB
:1003A6000313C1008030C2008A111C278A118312F0
:1003B6000313C7010030BE00BF001030C00000307C
:1003C600C1004B308A11F6268A1183120313C50128
:1003D600C601C8016D2A3B080319F229F329E5284D
:1003E6003D303B060319F829F929E5288312031342
:1003F6004608803AFF0080307F02031D042A0F3032
:1004060045020318072A082AE5288312031346081B
:1004160083160313B80083120313450883160313C8
:10042600B700282A8316031337084A3E840083132D
:100436000008FF0037084B3E84007F088000FF302D
:10044600B7070318B80AFF30B8073808803A803C67
:10045600031D312A3708831203134802031C342A6A
:10046600352A152A8312031348084B3E8400831647
:1004760003133B08831380000130FF007F088312BB
:100486000313C8070130C5070318C60A0030C6079C
:1004960045084B3E840080018A1599278A118A15E2
:1004A600DC278A1183120313C10101308A116027E8
:1004B6008A114B3083120313C1000030C2008A1127
:1004C6001C278A11831203134808C10001308A11C0
:1004D60060278A1108008C1D712A722A1F2B1308A7
:1004E600BD00141683160313941A7A2A7B2A842ACB
:1004F60014197E2A7F2A842A83120313C301C40196
:100506001C2B941E872A882A1C2B14198B2A8C2AAA
:100516001C2B831203134408803AFF0080307F02AD
:10052600031D972A0F30430203189A2A9B2A1C2B75
:10053600831203134308BD3E84003D0883138000E5
:100546000130C3070318C40A0030C4073D08031965
:10055600AD2AAE2AB52A0F3043064404031DB42A39
:10056600B52A1C2B4308BD3E840080018A15CC2782
:100576008A1183120313A30101308A1180278A117D
:10058600BD3083120313A3000030A4008A113E2756
:100596008A1183120313C301C4010130C7000B3053
:1005A60083120313B8002630B7005D30B600B60BD1
:1005B600DA2AB70BDA2AB80BDA2A00008A15CC2712
:1005C6008A1183120313A30101308A1180278A112D
:1005D600303083120313A3008030A4008A113E2713
:1005E6008A11063083120313B8001330B700AD30FA
:1005F600B600B60BFC2AB70BFC2AB80BFC2A000087
:100606008A15CC278A1183120313A30101308A119C
:1006160080278A1183120313DF010030B1000130F5
:10062600B0008630AF00A030AE008A11C3268A1112
:100636001C2B831203138C113C083B088A003A08D2
:100646008400390E8300FE0E7E0E09008316031306
:10065600A001A1012108803AFF0080307F02031D1E
:10066600362B04302002031C392B3A2B3B2BD22B82
:10067600103083120313BE0083160313200A83125D
:100686000313472B0310BE0DFF3E031D452B3E08EB
:10069600FF3A86000F308316031386001A30831242
:1006A6000313BF00F830BE00BE0B572BBF0B572BF2
:1006B60083160313A201A301013083120313BE00A4
:1006C60083160313220A831203136B2B0310BE0D2A
:1006D600FF3E031D692B3E080605031D732B742B75
:1006E600B22B0130BE0083160313220A83120313B2
:1006F6007E2B0310BE0DFF3E031D7C2B3E08060518
:100706000319862B872B742B8511823083120313D2
:10071600BF00DD30BE00BE0B8E2BBF0B8E2B000044
:10072600831203138515F030831603138600200801
:1007360083120313BE0002300310BE0DFF3E031DDD
:100746009F2B01303E07BF00831603132208831236
:1007560003133F0784008A1142258A11D32B0130E7
:1007660083160313A2070318A30A0030A30723085E
:10077600803AFF0080307F02031DC32B0430220223
:10078600031CC62BC72B5F2BF03083160313860082
:100796000130A0070318A10A0030A1072D2B003055
:1007A600080083160313A900A701A801A601DF2BE1
:1007B6000130FF007F08A907290884002030831331
:1007C60000060319E72BE82BDB2B29088400F730FA
:1007D6000007A40005302402031CF22BF32BDB2BAD
:1007E600290884002D300006031DFA2BFB2B022C52
:1007F600A601A60A0130FF007F08A907372C2908A1
:1008060084002B300006031D092C0A2C372CFD2BE7
:1008160029088400280883120313BF0083160313D4
:10082600270883120313BE000A30C0000030C1003F
:100836008A1156268A11831203133F08831603135F
:10084600A50083130008831203133E0283160313C5
:10085600A400031CA5032408303EA700250803189E
:10086600013E003EA800FD2B29088400D030000779
:10087600A4000A302402031C412C422C0B2C26080F
:10088600031D462C472C532C2709A4002809A50034
:10089600A40A0319A50A2408A2002508A300572CB8
:1008A6002808A3002708A2000800003083160313B7
:1008B600AB000030AA000030A9000030A8002308D1
:1008C6002204210420040319692C6A2CC72CAC01CC
:1008D600AC0A822C013083120313BE000310831668
:1008E6000313A00DA10DA20DA30D83120313BE0BBE
:1008F600712C0130FF007F0883160313AC07A31F7A
:10090600852C862C6D2C013083120313BE00031038
:1009160083160313A80DA90DAA0DAB0D831203139D
:10092600BE0B8A2C8316031323082702031DA52C4E
:1009360022082602031DA52C21082502031DA52C2D
:1009460020082402031CA82CA92CB82C2008A402D9
:100956002108031C210FA5022208031C220FA60250
:100966002308031C230FA702281401300310A30C2D
:10097600A20CA10CA00CFF3E031DB92C0130AC0249
:10098600031DC62CC72C862C2B08A3002A08A20000
:100996002908A1002808A0000800003083120313CC
:1009A600AC000030AB000030AA000030A9002308DC
:1009B6002204210420040319E12CE22C2F2DAD0181
:1009C600AD0AF22C0130A8000310A00DA10DA20D56
:1009D600A30DA80BE72C0130FF007F08AD07A31F6E
:1009E600F52CF62CE52C0130A8000310A90DAA0D54
:1009F600AB0DAC0DA80BF82C23082702031D0D2DFB
:100A060022082602031D0D2D21082502031D0D2D8A
:100A160020082402031C102D112D202D2008A402CD
:100A26002108031C210FA5022208031C220FA6027F
:100A36002308031C230FA702291401300310A30C5B
:100A4600A20CA10CA00CFF3E031D212D0130AD020E
:100A5600031D2E2D2F2DF62C2C08A3002B08A200EB
:100A66002A08A1002908A0000800FF1B422D8313B5
:100A76007F1883170008840A0319FF0A0800053047
:100A86008A000408840A820700343734383439343B
:100A96002F343434353436345834313432343334F4
:100AA6002D34433430343D342B344D3465346E3478
:100AB600733461346A346534203465346E34763484
:100AC6006934613464346F340034453473347034BB
:100AD6006534723461346E3464346F342034723465
:100AE600653473347034003445347334633472348B
:100AF600693462346134203452346534733470346A
:100B0600003445345334503420344D345334003497
:100B16000730831603139F00850186011A3083125E
:100B26000313C200F830C100C10B972DC20B972DDD
:100B360038308A11B3278A11073083120313C20093
:100B46007C30C100C10BA52DC20BA52DAA2D0F30DF
:100B56008A11B3278A11073083120313C2007C302F
:100B6600C100C10BB42DC20BB42DB92D01308A11B1
:100B7600B3278A11033083120313C2009730C100D2
:100B8600C10BC32DC20BC32D000002308A11B3273F
:100B96008A11033083120313C2009730C100C10BC0
:100BA600D22DC20BD22D0000080083160313B1000C
:100BB60083120313DF010030C2000130C10086300A
:100BC600C000A030BF008A1117268A118A159D27FA
:100BD6008A1120308A15B4278A11FD2D3108840028
:100BE60000088A15B4278A110130FF007F08831692
:100BF6000313B10783160313310884008313000817
:100C0600031D062E072EF12D00308A15B4278A11F2
:100C16008A15A4278A11013083120313DF001030CE
:100C26008A15EC278A1108002830831203139400D2
:100C36003F0883160313AD0083120313400883167F
:100C46000313AE0083120313410883160313AF0088
:100C560083120313420883160313B00002300310F5
:100C6600AD0DAE0DAF0DB00DFF3E031D322E30089B
:100C7600A3002F08A2002E08A1002D08A000003016
:100C8600A7003D30A6000930A5000030A4008A1157
:100C960058248A11831603132008FF3E93009401FB
:100CA60087150716080083160313A001A1018312F6
:100CB6003E1C5E2E5F2E6B2E400883160313A00784
:100CC6000318A10A83120313410883160313A1070D
:100CD600013083120310C00DC10DFF3E031D6D2EA2
:100CE60001300310BF0CBE0CFF3E031D742E3E08E0
:100CF6003F04031D7F2E802E5A2E831603132108D0
:100D060083120313BF0083160313200883120313F1
:100D1600BE0008008A118B258A1110308A15EC272F
:100D26008A118A15DC278A1183120313C101013047
:100D36008A1160278A113D3083120313C100803067
:100D4600C2008A111C278A1183120313470803194C
:100D5600AD2EAE2EA72E8A15AB278A118A1129230E
:100D66008A1183160313BC003C080319BB2EBC2E44
:100D7600A72E3C088A1127208A11A72E8A1111282E
:100D860028308312031394002E08B2002F08B300F4
:100D96003008B4003108B50002300310B20DB30DAF
:100DA600B40DB50DFF3E031DD02E3508A300340843
:100DB600A2003308A1003208A0000030A7003D3091
:100DC600A6000930A5000030A4008A11D0248A119B
:100DD600831203132008FF3E831603139300940126
:100DE60087150716080083160313A0002008A10024
:100DF6000B2F8316031321088400831203133E0866
:100E0600831380000130FF007F0883160313A107B8
:100E1600013083120313C0020030031CC103C10258
:100E2600400A031D1A2F410A031D1A2F1B2FFC2EE1
:100E360008002F2F4208FF00410884008A11382538
:100E46008A118A119C278A11013083120313C10764
:100E56000318C20A0030C207831203134208FF00B8
:100E6600410884008A1138258A11003A031D3C2F57
:100E76003D2F1D2F0800512F2408FF002308840052
:100E86008A1138258A118A11CA278A1101308312DC
:100E96000313A3070318A40A0030A407831203133D
:100EA6002408FF00230884008A1138258A11003A95
:100EB600031D5E2F5F2F3F2F080083160313A0002C
:100EC60020030319672F682F6D2FC030A100003053
:100ED600A200712F8030A1000030A2002108A300DB
:100EE600831203134108FF007F0883160313A30729
:100EF60023088A11B3278A11080083120313A4005A
:100F060024030319872F882F8D2FC030A5000030AA
:100F1600A600912F8030A5000030A6002508A70066
:100F26002308FF007F08A70727088A11E1278A11EF
:100F3600080083120313C0000514851040088600BC
:100F46000515033083120313BF009730BE00BE0B96
:100F5600AA2FBF0BAA2F0000831203130511080046
:100F660083120313C000051085104008860005157E
:100F7600033083120313BF009730BE00BE0BC12F90
:100F8600BF0BC12F00008312031305110800831243
:100F96000313A200051485102208860005150330E8
:100FA60083120313A1009730A000A00BD82FA10B2A
:100FB600D82F0000831203130511080083120313B0
:100FC600A20005108510220886000515033083123D
:100FD6000313A1009730A000A00BEF2FA10BEF2F5A
:100FE6000000831203130511080064008001840ABF
:0A0FF6000406031900340406F92F65
:101F320083160313860108008A15BF278A158316A4
:101F42000313111408008A15BF278A158316031379
:101F520011150800F0308316031386000F30831228
:101F620003138600080083120313BE008A15BF27DD
:101F72008A15831203133E08930008008316031385
:101F820011081F39031DC62FC72FBF2F1419CA2FBF
:101F9200CB2FBF2F080001308A11E1278A150330A9
:101FA20083120313A4009730A300A30BD62FA40B14
:101FB200D62F0000080001308A11B3278A1503309A
:101FC20083120313C2009730C100C10BE62FC20B6C
:101FD200E62F0000080083120313BE003E0883169A
:101FE20003139300363083120313940083160313F2
:0E1FF2009401871507160B178C158B17080026
:02400E00793FF8
:00000001FF
